{
  "contractName": "MedicalProductTracking",
  "abi": [
    {
      "inputs": [],
      "stateMutability": "nonpayable",
      "type": "constructor"
    },
    {
      "anonymous": false,
      "inputs": [
        {
          "indexed": false,
          "internalType": "address",
          "name": "manufacturerAddress",
          "type": "address"
        },
        {
          "indexed": false,
          "internalType": "string",
          "name": "manufacturerLocation",
          "type": "string"
        },
        {
          "indexed": false,
          "internalType": "string",
          "name": "productSerialNumber",
          "type": "string"
        },
        {
          "indexed": false,
          "internalType": "string",
          "name": "productBatchNumber",
          "type": "string"
        },
        {
          "indexed": false,
          "internalType": "string",
          "name": "productName",
          "type": "string"
        },
        {
          "indexed": false,
          "internalType": "string",
          "name": "registrationTimestamp",
          "type": "string"
        }
      ],
      "name": "ProductRegistered",
      "type": "event"
    },
    {
      "anonymous": false,
      "inputs": [
        {
          "indexed": false,
          "internalType": "address",
          "name": "from",
          "type": "address"
        },
        {
          "indexed": false,
          "internalType": "address",
          "name": "to",
          "type": "address"
        },
        {
          "indexed": false,
          "internalType": "string",
          "name": "productSerialNumber",
          "type": "string"
        },
        {
          "indexed": false,
          "internalType": "string",
          "name": "transferTimestamp",
          "type": "string"
        }
      ],
      "name": "ProductTransferred",
      "type": "event"
    },
    {
      "inputs": [],
      "name": "contractOwner",
      "outputs": [
        {
          "internalType": "address",
          "name": "",
          "type": "address"
        }
      ],
      "stateMutability": "view",
      "type": "function",
      "constant": true
    },
    {
      "inputs": [
        {
          "internalType": "string",
          "name": "",
          "type": "string"
        },
        {
          "internalType": "uint256",
          "name": "",
          "type": "uint256"
        }
      ],
      "name": "productHistory",
      "outputs": [
        {
          "internalType": "address",
          "name": "currentOwner",
          "type": "address"
        },
        {
          "internalType": "string",
          "name": "currentLocation",
          "type": "string"
        },
        {
          "internalType": "string",
          "name": "tradeName",
          "type": "string"
        },
        {
          "internalType": "string",
          "name": "role",
          "type": "string"
        },
        {
          "internalType": "string",
          "name": "timestamp",
          "type": "string"
        }
      ],
      "stateMutability": "view",
      "type": "function",
      "constant": true
    },
    {
      "inputs": [
        {
          "internalType": "string",
          "name": "",
          "type": "string"
        }
      ],
      "name": "productRegistry",
      "outputs": [
        {
          "internalType": "address",
          "name": "manufacturer",
          "type": "address"
        },
        {
          "internalType": "string",
          "name": "serialNumber",
          "type": "string"
        },
        {
          "internalType": "string",
          "name": "batchNumber",
          "type": "string"
        },
        {
          "internalType": "string",
          "name": "productName",
          "type": "string"
        },
        {
          "internalType": "string",
          "name": "location",
          "type": "string"
        },
        {
          "internalType": "string",
          "name": "timestamp",
          "type": "string"
        }
      ],
      "stateMutability": "view",
      "type": "function",
      "constant": true
    },
    {
      "inputs": [
        {
          "internalType": "address",
          "name": "manufacturerAddress",
          "type": "address"
        },
        {
          "internalType": "string",
          "name": "manufacturerLocation",
          "type": "string"
        },
        {
          "internalType": "string",
          "name": "productSerialNumber",
          "type": "string"
        },
        {
          "internalType": "string",
          "name": "productBatchNumber",
          "type": "string"
        },
        {
          "internalType": "string",
          "name": "productName",
          "type": "string"
        },
        {
          "internalType": "string",
          "name": "tradeName",
          "type": "string"
        }
      ],
      "name": "registerProduct",
      "outputs": [
        {
          "internalType": "bool",
          "name": "",
          "type": "bool"
        }
      ],
      "stateMutability": "nonpayable",
      "type": "function"
    },
    {
      "inputs": [
        {
          "internalType": "string",
          "name": "productSerialNumber",
          "type": "string"
        }
      ],
      "name": "getProductDetails",
      "outputs": [
        {
          "components": [
            {
              "internalType": "address",
              "name": "manufacturer",
              "type": "address"
            },
            {
              "internalType": "string",
              "name": "serialNumber",
              "type": "string"
            },
            {
              "internalType": "string",
              "name": "batchNumber",
              "type": "string"
            },
            {
              "internalType": "string",
              "name": "productName",
              "type": "string"
            },
            {
              "internalType": "string",
              "name": "location",
              "type": "string"
            },
            {
              "internalType": "string",
              "name": "timestamp",
              "type": "string"
            }
          ],
          "internalType": "struct MedicalProductTracking.ProductDetails",
          "name": "",
          "type": "tuple"
        }
      ],
      "stateMutability": "view",
      "type": "function",
      "constant": true
    },
    {
      "inputs": [
        {
          "internalType": "address",
          "name": "newOwnerAddress",
          "type": "address"
        },
        {
          "internalType": "string",
          "name": "newLocation",
          "type": "string"
        },
        {
          "internalType": "string",
          "name": "productSerialNumber",
          "type": "string"
        },
        {
          "internalType": "string",
          "name": "tradeName",
          "type": "string"
        },
        {
          "internalType": "string",
          "name": "role",
          "type": "string"
        }
      ],
      "name": "transferOwnership",
      "outputs": [],
      "stateMutability": "nonpayable",
      "type": "function"
    },
    {
      "inputs": [
        {
          "internalType": "string",
          "name": "productSerialNumber",
          "type": "string"
        }
      ],
      "name": "getProductHistory",
      "outputs": [
        {
          "components": [
            {
              "internalType": "address",
              "name": "currentOwner",
              "type": "address"
            },
            {
              "internalType": "string",
              "name": "currentLocation",
              "type": "string"
            },
            {
              "internalType": "string",
              "name": "tradeName",
              "type": "string"
            },
            {
              "internalType": "string",
              "name": "role",
              "type": "string"
            },
            {
              "internalType": "string",
              "name": "timestamp",
              "type": "string"
            }
          ],
          "internalType": "struct MedicalProductTracking.ProductStatus[]",
          "name": "",
          "type": "tuple[]"
        }
      ],
      "stateMutability": "view",
      "type": "function",
      "constant": true
    },
    {
      "inputs": [
        {
          "internalType": "string",
          "name": "productSerialNumber",
          "type": "string"
        }
      ],
      "name": "getProduct",
      "outputs": [
        {
          "components": [
            {
              "internalType": "address",
              "name": "currentOwner",
              "type": "address"
            },
            {
              "internalType": "string",
              "name": "currentLocation",
              "type": "string"
            },
            {
              "internalType": "string",
              "name": "tradeName",
              "type": "string"
            },
            {
              "internalType": "string",
              "name": "role",
              "type": "string"
            },
            {
              "internalType": "string",
              "name": "timestamp",
              "type": "string"
            }
          ],
          "internalType": "struct MedicalProductTracking.ProductStatus",
          "name": "",
          "type": "tuple"
        }
      ],
      "stateMutability": "view",
      "type": "function",
      "constant": true
    },
    {
      "inputs": [
        {
          "internalType": "string",
          "name": "productSerialNumber",
          "type": "string"
        },
        {
          "internalType": "address",
          "name": "currentOwnerAddress",
          "type": "address"
        },
        {
          "internalType": "string",
          "name": "clientLocation",
          "type": "string"
        }
      ],
      "name": "checkProduct",
      "outputs": [
        {
          "internalType": "bool",
          "name": "",
          "type": "bool"
        }
      ],
      "stateMutability": "view",
      "type": "function",
      "constant": true
    }
  ],
  "bytecode": "0x608060405234801561001057600080fd5b50336000806101000a81548173ffffffffffffffffffffffffffffffffffffffff021916908373ffffffffffffffffffffffffffffffffffffffff160217905550614006806100606000396000f3fe608060405234801561001057600080fd5b50600436106100935760003560e01c8063783db8b211610066578063783db8b21461015c57806387f5e2dd14610178578063c1e29756146101ad578063ce606ee0146101dd578063d4f50453146101fb57610093565b806301970b1114610098578063198c59b0146100cc5780634e3bc31f146100fc57806368111cce1461012c575b600080fd5b6100b260048036038101906100ad9190612f6b565b61022b565b6040516100c3959493929190613893565b60405180910390f35b6100e660048036038101906100e19190612e5c565b6104d4565b6040516100f39190613bc3565b60405180910390f35b61011660048036038101906101119190612ea1565b610938565b60405161012391906139a8565b60405180910390f35b61014660048036038101906101419190612e5c565b610d60565b6040516101539190613be5565b60405180910390f35b61017660048036038101906101719190612c5b565b61113f565b005b610192600480360381019061018d9190612f2a565b611a07565b6040516101a496959493929190613902565b60405180910390f35b6101c760048036038101906101c29190612d43565b611d21565b6040516101d491906139a8565b60405180910390f35b6101e56124ae565b6040516101f29190613797565b60405180910390f35b61021560048036038101906102109190612e5c565b6124d2565b6040516102229190613986565b60405180910390f35b600282805160208101820180518482526020830160208501208183528095505050505050818154811061025d57600080fd5b9060005260206000209060050201600091509150508060000160009054906101000a900473ffffffffffffffffffffffffffffffffffffffff16908060010180546102a790613e29565b80601f01602080910402602001604051908101604052809291908181526020018280546102d390613e29565b80156103205780601f106102f557610100808354040283529160200191610320565b820191906000526020600020905b81548152906001019060200180831161030357829003601f168201915b50505050509080600201805461033590613e29565b80601f016020809104026020016040519081016040528092919081815260200182805461036190613e29565b80156103ae5780601f10610383576101008083540402835291602001916103ae565b820191906000526020600020905b81548152906001019060200180831161039157829003601f168201915b5050505050908060030180546103c390613e29565b80601f01602080910402602001604051908101604052809291908181526020018280546103ef90613e29565b801561043c5780601f106104115761010080835404028352916020019161043c565b820191906000526020600020905b81548152906001019060200180831161041f57829003601f168201915b50505050509080600401805461045190613e29565b80601f016020809104026020016040519081016040528092919081815260200182805461047d90613e29565b80156104ca5780601f1061049f576101008083540402835291602001916104ca565b820191906000526020600020905b8154815290600101906020018083116104ad57829003601f168201915b5050505050905085565b6104dc612a4b565b60008383905011610522576040517f08c379a000000000000000000000000000000000000000000000000000000000815260040161051990613b63565b60405180910390fd5b600073ffffffffffffffffffffffffffffffffffffffff166001848460405161054c92919061377e565b908152602001604051809103902060000160009054906101000a900473ffffffffffffffffffffffffffffffffffffffff1673ffffffffffffffffffffffffffffffffffffffff1614156105d5576040517f08c379a00000000000000000000000000000000000000000000000000000000081526004016105cc90613aa3565b60405180910390fd5b600183836040516105e792919061377e565b90815260200160405180910390206040518060c00160405290816000820160009054906101000a900473ffffffffffffffffffffffffffffffffffffffff1673ffffffffffffffffffffffffffffffffffffffff1673ffffffffffffffffffffffffffffffffffffffff16815260200160018201805461066690613e29565b80601f016020809104026020016040519081016040528092919081815260200182805461069290613e29565b80156106df5780601f106106b4576101008083540402835291602001916106df565b820191906000526020600020905b8154815290600101906020018083116106c257829003601f168201915b505050505081526020016002820180546106f890613e29565b80601f016020809104026020016040519081016040528092919081815260200182805461072490613e29565b80156107715780601f1061074657610100808354040283529160200191610771565b820191906000526020600020905b81548152906001019060200180831161075457829003601f168201915b5050505050815260200160038201805461078a90613e29565b80601f01602080910402602001604051908101604052809291908181526020018280546107b690613e29565b80156108035780601f106107d857610100808354040283529160200191610803565b820191906000526020600020905b8154815290600101906020018083116107e657829003601f168201915b5050505050815260200160048201805461081c90613e29565b80601f016020809104026020016040519081016040528092919081815260200182805461084890613e29565b80156108955780601f1061086a57610100808354040283529160200191610895565b820191906000526020600020905b81548152906001019060200180831161087857829003601f168201915b505050505081526020016005820180546108ae90613e29565b80601f01602080910402602001604051908101604052809291908181526020018280546108da90613e29565b80156109275780601f106108fc57610100808354040283529160200191610927565b820191906000526020600020905b81548152906001019060200180831161090a57829003601f168201915b505050505081525050905092915050565b600080868690501415610980576040517f08c379a000000000000000000000000000000000000000000000000000000000815260040161097790613a23565b60405180910390fd5b60006002878760405161099492919061377e565b908152602001604051809103902080549050905060008114156109bb576000915050610d57565b6000600288886040516109cf92919061377e565b90815260200160405180910390206001836109ea9190613d6b565b81548110610a21577f4e487b7100000000000000000000000000000000000000000000000000000000600052603260045260246000fd5b90600052602060002090600502016040518060a00160405290816000820160009054906101000a900473ffffffffffffffffffffffffffffffffffffffff1673ffffffffffffffffffffffffffffffffffffffff1673ffffffffffffffffffffffffffffffffffffffff168152602001600182018054610aa090613e29565b80601f0160208091040260200160405190810160405280929190818152602001828054610acc90613e29565b8015610b195780601f10610aee57610100808354040283529160200191610b19565b820191906000526020600020905b815481529060010190602001808311610afc57829003601f168201915b50505050508152602001600282018054610b3290613e29565b80601f0160208091040260200160405190810160405280929190818152602001828054610b5e90613e29565b8015610bab5780601f10610b8057610100808354040283529160200191610bab565b820191906000526020600020905b815481529060010190602001808311610b8e57829003601f168201915b50505050508152602001600382018054610bc490613e29565b80601f0160208091040260200160405190810160405280929190818152602001828054610bf090613e29565b8015610c3d5780601f10610c1257610100808354040283529160200191610c3d565b820191906000526020600020905b815481529060010190602001808311610c2057829003601f168201915b50505050508152602001600482018054610c5690613e29565b80601f0160208091040260200160405190810160405280929190818152602001828054610c8290613e29565b8015610ccf5780601f10610ca457610100808354040283529160200191610ccf565b820191906000526020600020905b815481529060010190602001808311610cb257829003601f168201915b5050505050815250509050806000015173ffffffffffffffffffffffffffffffffffffffff168673ffffffffffffffffffffffffffffffffffffffff1614610d1c57600092505050610d57565b8060200151805190602001208585604051610d38929190613765565b604051809103902014610d5057600092505050610d57565b6001925050505b95945050505050565b610d68612a97565b6000838390501415610daf576040517f08c379a0000000000000000000000000000000000000000000000000000000008152600401610da690613a23565b60405180910390fd5b600060028484604051610dc392919061377e565b90815260200160405180910390208054905090506000811415610e1b576040517f08c379a0000000000000000000000000000000000000000000000000000000008152600401610e1290613ba3565b60405180910390fd5b60028484604051610e2d92919061377e565b9081526020016040518091039020600182610e489190613d6b565b81548110610e7f577f4e487b7100000000000000000000000000000000000000000000000000000000600052603260045260246000fd5b90600052602060002090600502016040518060a00160405290816000820160009054906101000a900473ffffffffffffffffffffffffffffffffffffffff1673ffffffffffffffffffffffffffffffffffffffff1673ffffffffffffffffffffffffffffffffffffffff168152602001600182018054610efe90613e29565b80601f0160208091040260200160405190810160405280929190818152602001828054610f2a90613e29565b8015610f775780601f10610f4c57610100808354040283529160200191610f77565b820191906000526020600020905b815481529060010190602001808311610f5a57829003601f168201915b50505050508152602001600282018054610f9090613e29565b80601f0160208091040260200160405190810160405280929190818152602001828054610fbc90613e29565b80156110095780601f10610fde57610100808354040283529160200191611009565b820191906000526020600020905b815481529060010190602001808311610fec57829003601f168201915b5050505050815260200160038201805461102290613e29565b80601f016020809104026020016040519081016040528092919081815260200182805461104e90613e29565b801561109b5780601f106110705761010080835404028352916020019161109b565b820191906000526020600020905b81548152906001019060200180831161107e57829003601f168201915b505050505081526020016004820180546110b490613e29565b80601f01602080910402602001604051908101604052809291908181526020018280546110e090613e29565b801561112d5780601f106111025761010080835404028352916020019161112d565b820191906000526020600020905b81548152906001019060200180831161111057829003601f168201915b50505050508152505091505092915050565b3373ffffffffffffffffffffffffffffffffffffffff1660008054906101000a900473ffffffffffffffffffffffffffffffffffffffff1673ffffffffffffffffffffffffffffffffffffffff16146111cd576040517f08c379a00000000000000000000000000000000000000000000000000000000081526004016111c490613a63565b60405180910390fd5b600073ffffffffffffffffffffffffffffffffffffffff168973ffffffffffffffffffffffffffffffffffffffff16141561123d576040517f08c379a000000000000000000000000000000000000000000000000000000000815260040161123490613b83565b60405180910390fd5b6000888890501415611284576040517f08c379a000000000000000000000000000000000000000000000000000000000815260040161127b90613b23565b60405180910390fd5b60008686905014156112cb576040517f08c379a00000000000000000000000000000000000000000000000000000000081526004016112c290613b43565b60405180910390fd5b6000600287876040516112df92919061377e565b9081526020016040518091039020805490501415611332576040517f08c379a000000000000000000000000000000000000000000000000000000000815260040161132990613aa3565b60405180910390fd5b6000828290501415611379576040517f08c379a000000000000000000000000000000000000000000000000000000000815260040161137090613a43565b60405180910390fd5b60008484905014156113c0576040517f08c379a00000000000000000000000000000000000000000000000000000000081526004016113b790613a43565b60405180910390fd5b6000600287876040516113d492919061377e565b90815260200160405180910390208054905090506000600288886040516113fc92919061377e565b90815260200160405180910390206001836114179190613d6b565b8154811061144e577f4e487b7100000000000000000000000000000000000000000000000000000000600052603260045260246000fd5b90600052602060002090600502016040518060a00160405290816000820160009054906101000a900473ffffffffffffffffffffffffffffffffffffffff1673ffffffffffffffffffffffffffffffffffffffff1673ffffffffffffffffffffffffffffffffffffffff1681526020016001820180546114cd90613e29565b80601f01602080910402602001604051908101604052809291908181526020018280546114f990613e29565b80156115465780601f1061151b57610100808354040283529160200191611546565b820191906000526020600020905b81548152906001019060200180831161152957829003601f168201915b5050505050815260200160028201805461155f90613e29565b80601f016020809104026020016040519081016040528092919081815260200182805461158b90613e29565b80156115d85780601f106115ad576101008083540402835291602001916115d8565b820191906000526020600020905b8154815290600101906020018083116115bb57829003601f168201915b505050505081526020016003820180546115f190613e29565b80601f016020809104026020016040519081016040528092919081815260200182805461161d90613e29565b801561166a5780601f1061163f5761010080835404028352916020019161166a565b820191906000526020600020905b81548152906001019060200180831161164d57829003601f168201915b5050505050815260200160048201805461168390613e29565b80601f01602080910402602001604051908101604052809291908181526020018280546116af90613e29565b80156116fc5780601f106116d1576101008083540402835291602001916116fc565b820191906000526020600020905b8154815290600101906020018083116116df57829003601f168201915b5050505050815250509050806000015173ffffffffffffffffffffffffffffffffffffffff168b73ffffffffffffffffffffffffffffffffffffffff16141561177a576040517f08c379a000000000000000000000000000000000000000000000000000000000815260040161177190613a03565b60405180910390fd5b60006117854261289e565b90508b826000019073ffffffffffffffffffffffffffffffffffffffff16908173ffffffffffffffffffffffffffffffffffffffff16815250508a8a8080601f016020809104026020016040519081016040528093929190818152602001838380828437600081840152601f19601f82011690508083019250505050505050826020018190525080826080018190525084848080601f016020809104026020016040519081016040528093929190818152602001838380828437600081840152601f19601f82011690508083019250505050505050826060018190525086868080601f016020809104026020016040519081016040528093929190818152602001838380828437600081840152601f19601f820116905080830192505050505050508260400181905250600289896040516118c192919061377e565b908152602001604051809103902082908060018154018082558091505060019003906000526020600020906005020160009091909190915060008201518160000160006101000a81548173ffffffffffffffffffffffffffffffffffffffff021916908373ffffffffffffffffffffffffffffffffffffffff160217905550602082015181600101908051906020019061195c929190612adc565b506040820151816002019080519060200190611979929190612adc565b506060820151816003019080519060200190611996929190612adc565b5060808201518160040190805190602001906119b3929190612adc565b5050507f4cfe951f4aeec780d8b18a9e41ac6d351b7b4a569566dc4080973f9844a869de82600001518d8b8b856040516119f19594939291906137b2565b60405180910390a1505050505050505050505050565b6001818051602081018201805184825260208301602085012081835280955050505050506000915090508060000160009054906101000a900473ffffffffffffffffffffffffffffffffffffffff1690806001018054611a6690613e29565b80601f0160208091040260200160405190810160405280929190818152602001828054611a9290613e29565b8015611adf5780601f10611ab457610100808354040283529160200191611adf565b820191906000526020600020905b815481529060010190602001808311611ac257829003601f168201915b505050505090806002018054611af490613e29565b80601f0160208091040260200160405190810160405280929190818152602001828054611b2090613e29565b8015611b6d5780601f10611b4257610100808354040283529160200191611b6d565b820191906000526020600020905b815481529060010190602001808311611b5057829003601f168201915b505050505090806003018054611b8290613e29565b80601f0160208091040260200160405190810160405280929190818152602001828054611bae90613e29565b8015611bfb5780601f10611bd057610100808354040283529160200191611bfb565b820191906000526020600020905b815481529060010190602001808311611bde57829003601f168201915b505050505090806004018054611c1090613e29565b80601f0160208091040260200160405190810160405280929190818152602001828054611c3c90613e29565b8015611c895780601f10611c5e57610100808354040283529160200191611c89565b820191906000526020600020905b815481529060010190602001808311611c6c57829003601f168201915b505050505090806005018054611c9e90613e29565b80601f0160208091040260200160405190810160405280929190818152602001828054611cca90613e29565b8015611d175780601f10611cec57610100808354040283529160200191611d17565b820191906000526020600020905b815481529060010190602001808311611cfa57829003601f168201915b5050505050905086565b60003373ffffffffffffffffffffffffffffffffffffffff1660008054906101000a900473ffffffffffffffffffffffffffffffffffffffff1673ffffffffffffffffffffffffffffffffffffffff1614611db1576040517f08c379a0000000000000000000000000000000000000000000000000000000008152600401611da890613a63565b60405180910390fd5b600073ffffffffffffffffffffffffffffffffffffffff168c73ffffffffffffffffffffffffffffffffffffffff161415611e21576040517f08c379a0000000000000000000000000000000000000000000000000000000008152600401611e1890613a83565b60405180910390fd5b60008b8b90501415611e68576040517f08c379a0000000000000000000000000000000000000000000000000000000008152600401611e5f90613b03565b60405180910390fd5b6000898990501415611eaf576040517f08c379a0000000000000000000000000000000000000000000000000000000008152600401611ea690613ac3565b60405180910390fd5b6000878790501415611ef6576040517f08c379a0000000000000000000000000000000000000000000000000000000008152600401611eed906139e3565b60405180910390fd5b6000858590501415611f3d576040517f08c379a0000000000000000000000000000000000000000000000000000000008152600401611f34906139c3565b60405180910390fd5b6000838390501415611f84576040517f08c379a0000000000000000000000000000000000000000000000000000000008152600401611f7b90613a43565b60405180910390fd5b600060018a8a604051611f9892919061377e565b90815260200160405180910390206005018054611fb490613e29565b905014611ff6576040517f08c379a0000000000000000000000000000000000000000000000000000000008152600401611fed90613ae3565b60405180910390fd5b60006120014261289e565b90506040518060c001604052808e73ffffffffffffffffffffffffffffffffffffffff1681526020018b8b8080601f016020809104026020016040519081016040528093929190818152602001838380828437600081840152601f19601f82011690508083019250505050505050815260200189898080601f016020809104026020016040519081016040528093929190818152602001838380828437600081840152601f19601f82011690508083019250505050505050815260200187878080601f016020809104026020016040519081016040528093929190818152602001838380828437600081840152601f19601f8201169050808301925050505050505081526020018d8d8080601f016020809104026020016040519081016040528093929190818152602001838380828437600081840152601f19601f8201169050808301925050505050505081526020018281525060018b8b60405161216892919061377e565b908152602001604051809103902060008201518160000160006101000a81548173ffffffffffffffffffffffffffffffffffffffff021916908373ffffffffffffffffffffffffffffffffffffffff16021790555060208201518160010190805190602001906121d9929190612adc565b5060408201518160020190805190602001906121f6929190612adc565b506060820151816003019080519060200190612213929190612adc565b506080820151816004019080519060200190612230929190612adc565b5060a082015181600501908051906020019061224d929190612adc565b5090505060028a8a60405161226392919061377e565b90815260200160405180910390206040518060a001604052808f73ffffffffffffffffffffffffffffffffffffffff1681526020018e8e8080601f016020809104026020016040519081016040528093929190818152602001838380828437600081840152601f19601f82011690508083019250505050505050815260200186868080601f016020809104026020016040519081016040528093929190818152602001838380828437600081840152601f19601f8201169050808301925050505050505081526020016040518060400160405280600c81526020017f6d616e7566616374757265720000000000000000000000000000000000000000815250815260200183815250908060018154018082558091505060019003906000526020600020906005020160009091909190915060008201518160000160006101000a81548173ffffffffffffffffffffffffffffffffffffffff021916908373ffffffffffffffffffffffffffffffffffffffff16021790555060208201518160010190805190602001906123f7929190612adc565b506040820151816002019080519060200190612414929190612adc565b506060820151816003019080519060200190612431929190612adc565b50608082015181600401908051906020019061244e929190612adc565b5050507fd40d9a33593bf0a570ec0224da6eb60e93ece676388c767ed3aa762efe1545c78d8d8d8d8d8d8d8d8d8a6040516124929a99989796959493929190613807565b60405180910390a160019150509b9a5050505050505050505050565b60008054906101000a900473ffffffffffffffffffffffffffffffffffffffff1681565b6060600083839050141561251b576040517f08c379a000000000000000000000000000000000000000000000000000000000815260040161251290613a23565b60405180910390fd5b60006002848460405161252f92919061377e565b9081526020016040518091039020805490501415612582576040517f08c379a000000000000000000000000000000000000000000000000000000000815260040161257990613ba3565b60405180910390fd5b6002838360405161259492919061377e565b9081526020016040518091039020805480602002602001604051908101604052809291908181526020016000905b8282101561289257838290600052602060002090600502016040518060a00160405290816000820160009054906101000a900473ffffffffffffffffffffffffffffffffffffffff1673ffffffffffffffffffffffffffffffffffffffff1673ffffffffffffffffffffffffffffffffffffffff16815260200160018201805461264b90613e29565b80601f016020809104026020016040519081016040528092919081815260200182805461267790613e29565b80156126c45780601f10612699576101008083540402835291602001916126c4565b820191906000526020600020905b8154815290600101906020018083116126a757829003601f168201915b505050505081526020016002820180546126dd90613e29565b80601f016020809104026020016040519081016040528092919081815260200182805461270990613e29565b80156127565780601f1061272b57610100808354040283529160200191612756565b820191906000526020600020905b81548152906001019060200180831161273957829003601f168201915b5050505050815260200160038201805461276f90613e29565b80601f016020809104026020016040519081016040528092919081815260200182805461279b90613e29565b80156127e85780601f106127bd576101008083540402835291602001916127e8565b820191906000526020600020905b8154815290600101906020018083116127cb57829003601f168201915b5050505050815260200160048201805461280190613e29565b80601f016020809104026020016040519081016040528092919081815260200182805461282d90613e29565b801561287a5780601f1061284f5761010080835404028352916020019161287a565b820191906000526020600020905b81548152906001019060200180831161285d57829003601f168201915b505050505081525050815260200190600101906125c2565b50505050905092915050565b606060008214156128e6576040518060400160405280600181526020017f30000000000000000000000000000000000000000000000000000000000000008152509050612a46565b600082905060005b6000821461291857808061290190613e5b565b915050600a826129119190613d3a565b91506128ee565b60008167ffffffffffffffff81111561295a577f4e487b7100000000000000000000000000000000000000000000000000000000600052604160045260246000fd5b6040519080825280601f01601f19166020018201604052801561298c5781602001600182028036833780820191505090505b5090505b60008514612a3f576001826129a59190613d6b565b9150600a856129b49190613ea4565b60306129c09190613ce4565b60f81b8183815181106129fc577f4e487b7100000000000000000000000000000000000000000000000000000000600052603260045260246000fd5b60200101907effffffffffffffffffffffffffffffffffffffffffffffffffffffffffffff1916908160001a905350600a85612a389190613d3a565b9450612990565b8093505050505b919050565b6040518060c00160405280600073ffffffffffffffffffffffffffffffffffffffff16815260200160608152602001606081526020016060815260200160608152602001606081525090565b6040518060a00160405280600073ffffffffffffffffffffffffffffffffffffffff168152602001606081526020016060815260200160608152602001606081525090565b828054612ae890613e29565b90600052602060002090601f016020900481019282612b0a5760008555612b51565b82601f10612b2357805160ff1916838001178555612b51565b82800160010185558215612b51579182015b82811115612b50578251825591602001919060010190612b35565b5b509050612b5e9190612b62565b5090565b5b80821115612b7b576000816000905550600101612b63565b5090565b6000612b92612b8d84613c38565b613c07565b905082815260208101848484011115612baa57600080fd5b612bb5848285613de7565b509392505050565b600081359050612bcc81613fa2565b92915050565b60008083601f840112612be457600080fd5b8235905067ffffffffffffffff811115612bfd57600080fd5b602083019150836001820283011115612c1557600080fd5b9250929050565b600082601f830112612c2d57600080fd5b8135612c3d848260208601612b7f565b91505092915050565b600081359050612c5581613fb9565b92915050565b600080600080600080600080600060a08a8c031215612c7957600080fd5b6000612c878c828d01612bbd565b99505060208a013567ffffffffffffffff811115612ca457600080fd5b612cb08c828d01612bd2565b985098505060408a013567ffffffffffffffff811115612ccf57600080fd5b612cdb8c828d01612bd2565b965096505060608a013567ffffffffffffffff811115612cfa57600080fd5b612d068c828d01612bd2565b945094505060808a013567ffffffffffffffff811115612d2557600080fd5b612d318c828d01612bd2565b92509250509295985092959850929598565b600080600080600080600080600080600060c08c8e031215612d6457600080fd5b6000612d728e828f01612bbd565b9b505060208c013567ffffffffffffffff811115612d8f57600080fd5b612d9b8e828f01612bd2565b9a509a505060408c013567ffffffffffffffff811115612dba57600080fd5b612dc68e828f01612bd2565b985098505060608c013567ffffffffffffffff811115612de557600080fd5b612df18e828f01612bd2565b965096505060808c013567ffffffffffffffff811115612e1057600080fd5b612e1c8e828f01612bd2565b945094505060a08c013567ffffffffffffffff811115612e3b57600080fd5b612e478e828f01612bd2565b92509250509295989b509295989b9093969950565b60008060208385031215612e6f57600080fd5b600083013567ffffffffffffffff811115612e8957600080fd5b612e9585828601612bd2565b92509250509250929050565b600080600080600060608688031215612eb957600080fd5b600086013567ffffffffffffffff811115612ed357600080fd5b612edf88828901612bd2565b95509550506020612ef288828901612bbd565b935050604086013567ffffffffffffffff811115612f0f57600080fd5b612f1b88828901612bd2565b92509250509295509295909350565b600060208284031215612f3c57600080fd5b600082013567ffffffffffffffff811115612f5657600080fd5b612f6284828501612c1c565b91505092915050565b60008060408385031215612f7e57600080fd5b600083013567ffffffffffffffff811115612f9857600080fd5b612fa485828601612c1c565b9250506020612fb585828601612c46565b9150509250929050565b6000612fcb838361364f565b905092915050565b612fdc81613d9f565b82525050565b612feb81613d9f565b82525050565b6000612ffc82613c78565b6130068185613c9b565b93508360208202850161301885613c68565b8060005b8581101561305457848403895281516130358582612fbf565b945061304083613c8e565b925060208a0199505060018101905061301c565b50829750879550505050505092915050565b61306f81613db1565b82525050565b60006130818385613cac565b935061308e838584613de7565b82840190509392505050565b60006130a68385613cc8565b93506130b3838584613de7565b6130bc83613f91565b840190509392505050565b60006130d38385613cd9565b93506130e0838584613de7565b82840190509392505050565b60006130f782613c83565b6131018185613cb7565b9350613111818560208601613df6565b61311a81613f91565b840191505092915050565b600061313082613c83565b61313a8185613cc8565b935061314a818560208601613df6565b61315381613f91565b840191505092915050565b600061316b601483613cc8565b91507f496e76616c69642050726f64756374206e616d650000000000000000000000006000830152602082019050919050565b60006131ab601c83613cc8565b91507f496e76616c69642050726f64756374206261746368206e756d626572000000006000830152602082019050919050565b60006131eb602d83613cc8565b91507f43616e6e6f74207472616e73666572206f776e65727368697020746f2074686560008301527f2073616d652061646472657373000000000000000000000000000000000000006020830152604082019050919050565b6000613251601e83613cc8565b91507f73657269616c206e756d6265722063616e206e6f7420626520656d70747900006000830152602082019050919050565b6000613291601283613cc8565b91507f496e76616c6964207472616465206e616d6500000000000000000000000000006000830152602082019050919050565b60006132d1602f83613cc8565b91507f4f6e6c792074686520636f6e7472616374206f776e65722063616e207065726660008301527f6f726d207468697320616374696f6e00000000000000000000000000000000006020830152604082019050919050565b6000613337601c83613cc8565b91507f496e76616c6964206d616e7566616374757265722061646472657373000000006000830152602082019050919050565b6000613377601583613cc8565b91507f496e76616c69642073657269616c206e756d62657200000000000000000000006000830152602082019050919050565b60006133b7601d83613cc8565b91507f496e76616c69642050726f647563742073657269616c206e756d6265720000006000830152602082019050919050565b60006133f7601683613cc8565b91507f6475706c69636174652053657269616c4e756d626572000000000000000000006000830152602082019050919050565b6000613437601d83613cc8565b91507f496e76616c6964204d616e756661637475726572206c6f636174696f6e0000006000830152602082019050919050565b6000613477600c83613cc8565b91507f4e6577206c6f636174696f6e00000000000000000000000000000000000000006000830152602082019050919050565b60006134b7601583613cc8565b91507f50726f647563742073657269616c206e756d62657200000000000000000000006000830152602082019050919050565b60006134f7601d83613cc8565b91507f53657269616c206e756d6265722063616e6e6f7420626520656d7074790000006000830152602082019050919050565b6000613537601983613cc8565b91507f496e76616c6964206e6577206f776e65722061646472657373000000000000006000830152602082019050919050565b6000613577601583613cc8565b91507f696e76616c69642073657269616c206e756d62657200000000000000000000006000830152602082019050919050565b600060c0830160008301516135c26000860182612fd3565b50602083015184820360208601526135da82826130ec565b915050604083015184820360408601526135f482826130ec565b9150506060830151848203606086015261360e82826130ec565b9150506080830151848203608086015261362882826130ec565b91505060a083015184820360a086015261364282826130ec565b9150508091505092915050565b600060a0830160008301516136676000860182612fd3565b506020830151848203602086015261367f82826130ec565b9150506040830151848203604086015261369982826130ec565b915050606083015184820360608601526136b382826130ec565b915050608083015184820360808601526136cd82826130ec565b9150508091505092915050565b600060a0830160008301516136f26000860182612fd3565b506020830151848203602086015261370a82826130ec565b9150506040830151848203604086015261372482826130ec565b9150506060830151848203606086015261373e82826130ec565b9150506080830151848203608086015261375882826130ec565b9150508091505092915050565b6000613772828486613075565b91508190509392505050565b600061378b8284866130c7565b91508190509392505050565b60006020820190506137ac6000830184612fe2565b92915050565b60006080820190506137c76000830188612fe2565b6137d46020830187612fe2565b81810360408301526137e781858761309a565b905081810360608301526137fb8184613125565b90509695505050505050565b600060c08201905061381c600083018d612fe2565b818103602083015261382f818b8d61309a565b9050818103604083015261384481898b61309a565b9050818103606083015261385981878961309a565b9050818103608083015261386e81858761309a565b905081810360a08301526138828184613125565b90509b9a5050505050505050505050565b600060a0820190506138a86000830188612fe2565b81810360208301526138ba8187613125565b905081810360408301526138ce8186613125565b905081810360608301526138e28185613125565b905081810360808301526138f68184613125565b90509695505050505050565b600060c0820190506139176000830189612fe2565b81810360208301526139298188613125565b9050818103604083015261393d8187613125565b905081810360608301526139518186613125565b905081810360808301526139658185613125565b905081810360a08301526139798184613125565b9050979650505050505050565b600060208201905081810360008301526139a08184612ff1565b905092915050565b60006020820190506139bd6000830184613066565b92915050565b600060208201905081810360008301526139dc8161315e565b9050919050565b600060208201905081810360008301526139fc8161319e565b9050919050565b60006020820190508181036000830152613a1c816131de565b9050919050565b60006020820190508181036000830152613a3c81613244565b9050919050565b60006020820190508181036000830152613a5c81613284565b9050919050565b60006020820190508181036000830152613a7c816132c4565b9050919050565b60006020820190508181036000830152613a9c8161332a565b9050919050565b60006020820190508181036000830152613abc8161336a565b9050919050565b60006020820190508181036000830152613adc816133aa565b9050919050565b60006020820190508181036000830152613afc816133ea565b9050919050565b60006020820190508181036000830152613b1c8161342a565b9050919050565b60006020820190508181036000830152613b3c8161346a565b9050919050565b60006020820190508181036000830152613b5c816134aa565b9050919050565b60006020820190508181036000830152613b7c816134ea565b9050919050565b60006020820190508181036000830152613b9c8161352a565b9050919050565b60006020820190508181036000830152613bbc8161356a565b9050919050565b60006020820190508181036000830152613bdd81846135aa565b905092915050565b60006020820190508181036000830152613bff81846136da565b905092915050565b6000604051905081810181811067ffffffffffffffff82111715613c2e57613c2d613f62565b5b8060405250919050565b600067ffffffffffffffff821115613c5357613c52613f62565b5b601f19601f8301169050602081019050919050565b6000819050602082019050919050565b600081519050919050565b600081519050919050565b6000602082019050919050565b600082825260208201905092915050565b600081905092915050565b600082825260208201905092915050565b600082825260208201905092915050565b600081905092915050565b6000613cef82613ddd565b9150613cfa83613ddd565b9250827fffffffffffffffffffffffffffffffffffffffffffffffffffffffffffffffff03821115613d2f57613d2e613ed5565b5b828201905092915050565b6000613d4582613ddd565b9150613d5083613ddd565b925082613d6057613d5f613f04565b5b828204905092915050565b6000613d7682613ddd565b9150613d8183613ddd565b925082821015613d9457613d93613ed5565b5b828203905092915050565b6000613daa82613dbd565b9050919050565b60008115159050919050565b600073ffffffffffffffffffffffffffffffffffffffff82169050919050565b6000819050919050565b82818337600083830152505050565b60005b83811015613e14578082015181840152602081019050613df9565b83811115613e23576000848401525b50505050565b60006002820490506001821680613e4157607f821691505b60208210811415613e5557613e54613f33565b5b50919050565b6000613e6682613ddd565b91507fffffffffffffffffffffffffffffffffffffffffffffffffffffffffffffffff821415613e9957613e98613ed5565b5b600182019050919050565b6000613eaf82613ddd565b9150613eba83613ddd565b925082613eca57613ec9613f04565b5b828206905092915050565b7f4e487b7100000000000000000000000000000000000000000000000000000000600052601160045260246000fd5b7f4e487b7100000000000000000000000000000000000000000000000000000000600052601260045260246000fd5b7f4e487b7100000000000000000000000000000000000000000000000000000000600052602260045260246000fd5b7f4e487b7100000000000000000000000000000000000000000000000000000000600052604160045260246000fd5b6000601f19601f8301169050919050565b613fab81613d9f565b8114613fb657600080fd5b50565b613fc281613ddd565b8114613fcd57600080fd5b5056fea26469706673582212200cfa548030d0a966e8dddbcf8419f6dc0cf87ed6dcbd73fa711b9101df50c26d64736f6c63430008000033",
  "immutableReferences": {},
  "source": "// SPDX-License-Identifier: MIT\r\npragma solidity ^0.8.0;\r\n\r\n\r\ncontract MedicalProductTracking {\r\n    address public contractOwner;\r\n\r\n    constructor() {\r\n        contractOwner = msg.sender;\r\n    }\r\n\r\n    modifier onlyContractOwner() {\r\n        require(\r\n            contractOwner == msg.sender,\r\n            \"Only the contract owner can perform this action\"\r\n        );\r\n        _;\r\n    }\r\n\r\n    struct ProductDetails {\r\n        address manufacturer;\r\n        string serialNumber;\r\n        string batchNumber;\r\n        string productName;\r\n        string location;\r\n        string timestamp;\r\n    }\r\n\r\n    struct ProductStatus {\r\n        address currentOwner;\r\n        string currentLocation;\r\n        string tradeName;\r\n        string role;\r\n        string timestamp;\r\n\r\n    }\r\n\r\n    // Mapping from product serial number to product details\r\n    mapping(string => ProductDetails) public productRegistry;\r\n\r\n    // Mapping from product serial number to array of product history to track the path of each product\r\n    mapping(string => ProductStatus[]) public productHistory;\r\n\r\n    // Events\r\n    event ProductRegistered(\r\n        address manufacturerAddress,\r\n        string manufacturerLocation,\r\n        string productSerialNumber,\r\n        string productBatchNumber,\r\n        string productName,\r\n        string registrationTimestamp\r\n    );\r\n    event ProductTransferred(\r\n        address from,\r\n        address to,\r\n        string productSerialNumber,\r\n        string transferTimestamp\r\n    );\r\n\r\n    function registerProduct(\r\n        address manufacturerAddress,\r\n        string calldata manufacturerLocation,\r\n        string calldata productSerialNumber,\r\n        string calldata productBatchNumber,\r\n        string calldata productName,\r\n        string calldata tradeName\r\n    ) public onlyContractOwner returns (bool) {\r\n        if (manufacturerAddress == address(0)) {\r\n            revert(\"Invalid manufacturer address\");\r\n        }\r\n\r\n        if (bytes(manufacturerLocation).length == 0) {\r\n            revert(\"Invalid Manufacturer location\");\r\n        }\r\n\r\n        if (bytes(productSerialNumber).length == 0) {\r\n            revert(\"Invalid Product serial number\");\r\n        }\r\n\r\n        if (bytes(productBatchNumber).length == 0) {\r\n            revert(\"Invalid Product batch number\");\r\n        }\r\n\r\n        if (bytes(productName).length == 0) {\r\n            revert(\"Invalid Product name\");\r\n        }\r\n\r\n        if (bytes(tradeName).length == 0) {\r\n            revert(\"Invalid trade name\");\r\n        }\r\n\r\n        if (bytes(productRegistry[productSerialNumber].timestamp).length != 0) {\r\n            revert(\"duplicate SerialNumber\");\r\n        }\r\n\r\n        string memory currentTimestamp = uint256ToString(block.timestamp);\r\n\r\n        productRegistry[productSerialNumber] = ProductDetails({\r\n            manufacturer: manufacturerAddress,\r\n            location: manufacturerLocation,\r\n            serialNumber: productSerialNumber,\r\n            batchNumber: productBatchNumber,\r\n            productName: productName,\r\n            timestamp: currentTimestamp\r\n        });\r\n\r\n        productHistory[productSerialNumber].push(\r\n            ProductStatus({\r\n                currentOwner: manufacturerAddress,\r\n                currentLocation: manufacturerLocation,\r\n                timestamp: currentTimestamp,\r\n                tradeName: tradeName,\r\n                role: \"manufacturer\"\r\n            })\r\n        );\r\n        emit ProductRegistered(\r\n            manufacturerAddress,\r\n            manufacturerLocation,\r\n            productSerialNumber,\r\n            productBatchNumber,\r\n            productName,\r\n            currentTimestamp\r\n        );\r\n        return true;\r\n    }\r\n\r\n    function getProductDetails(\r\n        string calldata productSerialNumber\r\n    ) public view returns (ProductDetails memory) {\r\n        require(\r\n            bytes(productSerialNumber).length > 0,\r\n            \"Serial number cannot be empty\"\r\n        );\r\n        require(\r\n            productRegistry[productSerialNumber].manufacturer != address(0),\r\n            \"Invalid serial number\"\r\n        );\r\n\r\n        return productRegistry[productSerialNumber];\r\n    }\r\n\r\n    function transferOwnership(\r\n        address newOwnerAddress,\r\n        string calldata newLocation,\r\n        string calldata productSerialNumber,\r\n        string calldata tradeName,\r\n        string calldata role\r\n    ) public onlyContractOwner {\r\n        //check input validation\r\n        if (newOwnerAddress == address(0)) {\r\n            revert(\"Invalid new owner address\");\r\n        }\r\n\r\n        if (bytes(newLocation).length == 0) {\r\n            revert(\"New location\");\r\n        }\r\n\r\n        if (bytes(productSerialNumber).length == 0) {\r\n            revert(\"Product serial number\");\r\n        }\r\n\r\n        if (productHistory[productSerialNumber].length == 0) {\r\n            revert(\"Invalid serial number\");\r\n        }\r\n\r\n        if (bytes(role).length == 0) {\r\n            revert(\"Invalid trade name\");\r\n        }\r\n\r\n        if (bytes(tradeName).length == 0) {\r\n            revert(\"Invalid trade name\");\r\n        }\r\n\r\n        uint len = productHistory[productSerialNumber].length;\r\n        ProductStatus memory product = productHistory[productSerialNumber][len - 1];\r\n\r\n        if (newOwnerAddress == product.currentOwner) {\r\n            revert(\"Cannot transfer ownership to the same address\");\r\n        }\r\n\r\n        string memory currentTimestamp = uint256ToString(block.timestamp);\r\n\r\n        //push current status of the product in product history\r\n        product.currentOwner = newOwnerAddress;\r\n        product.currentLocation = newLocation;\r\n        product.timestamp = currentTimestamp;\r\n        product.role = role;\r\n        product.tradeName = tradeName;\r\n        productHistory[productSerialNumber].push(product);\r\n        emit ProductTransferred(\r\n            product.currentOwner,\r\n            newOwnerAddress,\r\n            productSerialNumber,\r\n            currentTimestamp\r\n        );\r\n    }\r\n\r\n    function getProductHistory(\r\n        string calldata productSerialNumber\r\n    ) public view returns (ProductStatus[] memory) {\r\n        if (bytes(productSerialNumber).length == 0)\r\n            revert(\"serial number can not be empty\");\r\n        if (productHistory[productSerialNumber].length == 0)\r\n            revert(\"invalid serial number\");\r\n\r\n        return productHistory[productSerialNumber];\r\n    }\r\n\r\n    //return current owner and location of the product\r\n    function getProduct(\r\n        string calldata productSerialNumber\r\n    ) public view returns (ProductStatus memory) {\r\n        if (bytes(productSerialNumber).length == 0)\r\n            revert(\"serial number can not be empty\");\r\n        uint len = productHistory[productSerialNumber].length;\r\n        if (len == 0) revert(\"invalid serial number\");\r\n        return productHistory[productSerialNumber][len - 1];\r\n    }\r\n\r\n    function checkProduct(\r\n        string calldata productSerialNumber,\r\n        address currentOwnerAddress,\r\n        string calldata clientLocation\r\n    ) public view returns (bool) {\r\n        if (bytes(productSerialNumber).length == 0)\r\n            revert(\"serial number can not be empty\");\r\n        uint len = productHistory[productSerialNumber].length;\r\n        if (len == 0) return false;\r\n        ProductStatus memory product = productHistory[productSerialNumber][\r\n            len - 1\r\n        ];\r\n        if (currentOwnerAddress != product.currentOwner) return false;\r\n        if (\r\n            keccak256(bytes(clientLocation)) !=\r\n            keccak256(bytes(product.currentLocation))\r\n        ) return false;\r\n\r\n        return true;\r\n    }\r\n\r\n    // Helper function to convert uint256 to string\r\n    function uint256ToString(\r\n        uint256 value\r\n    ) internal pure returns (string memory) {\r\n        if (value == 0) {\r\n            return \"0\";\r\n        }\r\n\r\n        uint256 temp = value;\r\n        uint256 digits;\r\n\r\n        while (temp != 0) {\r\n            digits++;\r\n            temp /= 10;\r\n        }\r\n\r\n        bytes memory buffer = new bytes(digits);\r\n        while (value != 0) {\r\n            digits -= 1;\r\n            buffer[digits] = bytes1(uint8(48 + uint256(value % 10)));\r\n            value /= 10;\r\n        }\r\n\r\n        return string(buffer);\r\n    }\r\n}\r\n\r\n\r\n\r\n\r\n// pragma solidity ^0.8.0;\r\n\r\n// contract MedicalProductTracking {\r\n//     address public contractOwner;\r\n\r\n//     constructor() {\r\n//         contractOwner = msg.sender;\r\n//     }\r\n//     modifier onlyContractOwner() {\r\n//         require(\r\n//             contractOwner == msg.sender,\r\n//             \"Only the contract owner can perform this action\"\r\n//         );\r\n//         _;\r\n//     }\r\n\r\n//     struct ProductDetails {\r\n//         address manufacturer;\r\n//         string serialNumber;\r\n//         string batchNumber;\r\n//         string productName;\r\n//         string location;\r\n//         string timestamp;\r\n//     }\r\n\r\n//     struct ProductStatus {\r\n//         address currentOwner;\r\n//         string currentLocation;\r\n//         string timestamp;\r\n//     }\r\n\r\n//     mapping(string => ProductDetails) public productRegistry;\r\n//     mapping(string => ProductStatus[]) public productHistory;\r\n\r\n//     event ProductRegistered(\r\n//         address manufacturerAddress,\r\n//         string manufacturerLocation,\r\n//         string productSerialNumber,\r\n//         string productBatchNumber,\r\n//         string productName,\r\n//         string timestamp\r\n//     );\r\n\r\n//     event ProductTransferred(\r\n//         address from,\r\n//         address to,\r\n//         string productSerialNumber,\r\n//         string timestamp\r\n//     );\r\n\r\n//     function registerProduct(\r\n//         address manufacturerAddress,\r\n//         string calldata manufacturerLocation,\r\n//         string calldata productSerialNumber,\r\n//         string calldata productBatchNumber,\r\n//         string calldata productName\r\n//     ) public returns (bool) {\r\n//         require(\r\n//             bytes(manufacturerLocation).length > 0,\r\n//             \"Invalid manufacturer address\"\r\n//         );\r\n//         require(\r\n//             manufacturerAddress != address(0),\r\n//             \"Invalid manufacturer address\"\r\n//         );\r\n//         require(\r\n//             bytes(productSerialNumber).length > 0,\r\n//             \"Product serial number cannot be empty\"\r\n//         );\r\n//         require(\r\n//             bytes(productBatchNumber).length > 0,\r\n//             \"Product batch number cannot be empty\"\r\n//         );\r\n//         require(bytes(productName).length > 0, \"Product name cannot be empty\");\r\n//         require(\r\n//             bytes(productRegistry[productSerialNumber].timestamp).length == 0,\r\n//             \"Product is already registered\"\r\n//         );\r\n\r\n//         string memory timestampStr = uint2str(block.timestamp);\r\n\r\n//         productRegistry[productSerialNumber] = ProductDetails({\r\n//             manufacturer: manufacturerAddress,\r\n//             location: manufacturerLocation,\r\n//             serialNumber: productSerialNumber,\r\n//             batchNumber: productBatchNumber,\r\n//             productName: productName,\r\n//             timestamp: timestampStr\r\n//         });\r\n\r\n//         productHistory[productSerialNumber].push(\r\n//             ProductStatus({\r\n//                 currentOwner: manufacturerAddress,\r\n//                 currentLocation: manufacturerLocation,\r\n//                 timestamp: timestampStr\r\n//             })\r\n//         );\r\n\r\n//         emit ProductRegistered(\r\n//             manufacturerAddress,\r\n//             manufacturerLocation,\r\n//             productSerialNumber,\r\n//             productBatchNumber,\r\n//             productName,\r\n//             timestampStr\r\n//         );\r\n//         return true;\r\n//     }\r\n\r\n//     function transferOwnership(\r\n//         address previousOwnerAddress,\r\n//         address newOwnerAddress,\r\n//         string calldata newLocation,\r\n//         string calldata productSerialNumber\r\n//     ) public {\r\n//         require(\r\n//             previousOwnerAddress != address(0),\r\n//             \"Invalid previous owner address\"\r\n//         );\r\n//         require(newOwnerAddress != address(0), \"Invalid new owner address\");\r\n//         require(bytes(newLocation).length > 0, \"New location cannot be empty\");\r\n//         require(\r\n//             bytes(productSerialNumber).length > 0,\r\n//             \"Product serial number cannot be empty\"\r\n//         );\r\n//         require(\r\n//             productHistory[productSerialNumber].length > 0,\r\n//             \"Invalid serial number\"\r\n//         );\r\n\r\n//         uint len = productHistory[productSerialNumber].length;\r\n//         ProductStatus memory product = productHistory[productSerialNumber][\r\n//             len - 1\r\n//         ];\r\n//         require(\r\n//             previousOwnerAddress == product.currentOwner,\r\n//             \"Previous owner does not own this product\"\r\n//         );\r\n//         require(\r\n//             newOwnerAddress != previousOwnerAddress,\r\n//             \"Cannot transfer ownership to the same address\"\r\n//         );\r\n\r\n//         string memory timestampStr = uint2str(block.timestamp);\r\n//         productHistory[productSerialNumber].push(\r\n//             ProductStatus({\r\n//                 currentOwner: newOwnerAddress,\r\n//                 currentLocation: newLocation,\r\n//                 timestamp: timestampStr\r\n//             })\r\n//         );\r\n\r\n//         emit ProductTransferred(\r\n//             previousOwnerAddress,\r\n//             newOwnerAddress,\r\n//             productSerialNumber,\r\n//             timestampStr\r\n//         );\r\n//     }\r\n\r\n//     function getProductHistory(\r\n//         string calldata productSerialNumber\r\n//     ) public view returns (ProductStatus[] memory) {\r\n//         require(\r\n//             bytes(productSerialNumber).length > 0,\r\n//             \"Serial number cannot be empty\"\r\n//         );\r\n//         require(\r\n//             productHistory[productSerialNumber].length > 0,\r\n//             \"Invalid serial number\"\r\n//         );\r\n//         return productHistory[productSerialNumber];\r\n//     }\r\n\r\n//     function getProduct(\r\n//         string calldata productSerialNumber\r\n//     ) public view returns (ProductStatus memory) {\r\n//         require(\r\n//             bytes(productSerialNumber).length > 0,\r\n//             \"Serial number cannot be empty\"\r\n//         );\r\n//         uint len = productHistory[productSerialNumber].length;\r\n//         require(len > 0, \"Invalid serial number\");\r\n//         return productHistory[productSerialNumber][len - 1];\r\n//     }\r\n\r\n//     function checkProduct(\r\n//         string calldata productSerialNumber,\r\n//         address currentOwnerAddress,\r\n//         string calldata clientLocation\r\n//     ) public view returns (bool) {\r\n//         require(\r\n//             bytes(productSerialNumber).length > 0,\r\n//             \"serial number cannot be empty\"\r\n//         );\r\n\r\n//         ProductStatus[] memory history = productHistory[productSerialNumber];\r\n//         uint len = history.length;\r\n\r\n//         require(len > 0, \"No product history found\"); // Added require\r\n\r\n//         ProductStatus memory product = history[len - 1];\r\n\r\n//         require(\r\n//             currentOwnerAddress == product.currentOwner,\r\n//             \"Incorrect owner address\"\r\n//         ); // added require\r\n\r\n//         require(\r\n//             keccak256(bytes(clientLocation)) ==\r\n//                 keccak256(bytes(product.currentLocation)),\r\n//             \"Incorrect location\"\r\n//         ); // added require\r\n\r\n//         return true;\r\n//     }\r\n\r\n//     function uint2str(uint _i) internal pure returns (string memory) {\r\n//         if (_i == 0) return \"0\";\r\n//         uint j = _i;\r\n//         uint length;\r\n//         while (j != 0) {\r\n//             length++;\r\n//             j /= 10;\r\n//         }\r\n//         bytes memory bstr = new bytes(length);\r\n//         while (_i != 0) {\r\n//             bstr[--length] = bytes1(uint8(48 + (_i % 10)));\r\n//             _i /= 10;\r\n//         }\r\n//         return string(bstr);\r\n//     }\r\n// }\r\n",
  "sourcePath": "F:\\MediShield final\\contracts\\MedicalProductTracking.sol",
  "compiler": {
    "name": "solc",
    "version": "0.8.0+commit.c7dfd78e.Emscripten.clang"
  },
  "schemaVersion": "3.4.16",
  "updatedAt": "2025-07-05T12:24:16.597Z",
  "networkType": "ethereum",
  "devdoc": {
    "kind": "dev",
    "methods": {},
    "version": 1
  },
  "userdoc": {
    "kind": "user",
    "methods": {},
    "version": 1
  }
}